{
  "contractName": "Media",
  "abi": [
    {
      "inputs": [
        {
          "internalType": "string",
          "name": "_username",
          "type": "string"
        }
      ],
      "name": "signUp",
      "outputs": [],
      "stateMutability": "nonpayable",
      "type": "function"
    },
    {
      "inputs": [
        {
          "internalType": "string",
          "name": "_text",
          "type": "string"
        }
      ],
      "name": "post",
      "outputs": [],
      "stateMutability": "nonpayable",
      "type": "function"
    },
    {
      "inputs": [],
      "name": "getPosts",
      "outputs": [
        {
          "components": [
            {
              "internalType": "uint256",
              "name": "likes",
              "type": "uint256"
            },
            {
              "internalType": "string",
              "name": "text",
              "type": "string"
            },
            {
              "internalType": "address",
              "name": "user",
              "type": "address"
            }
          ],
          "internalType": "struct Media.Post[]",
          "name": "",
          "type": "tuple[]"
        }
      ],
      "stateMutability": "view",
      "type": "function",
      "constant": true
    },
    {
      "inputs": [
        {
          "internalType": "address",
          "name": "_address",
          "type": "address"
        }
      ],
      "name": "toggleFollow",
      "outputs": [],
      "stateMutability": "nonpayable",
      "type": "function"
    },
    {
      "inputs": [
        {
          "internalType": "address",
          "name": "_address",
          "type": "address"
        }
      ],
      "name": "checkFollow",
      "outputs": [
        {
          "internalType": "bool",
          "name": "",
          "type": "bool"
        }
      ],
      "stateMutability": "view",
      "type": "function",
      "constant": true
    },
    {
      "inputs": [
        {
          "internalType": "address",
          "name": "_address",
          "type": "address"
        }
      ],
      "name": "getUsername",
      "outputs": [
        {
          "internalType": "string",
          "name": "",
          "type": "string"
        }
      ],
      "stateMutability": "view",
      "type": "function",
      "constant": true
    }
  ],
  "bytecode": "0x60806040526298968060005534801561001757600080fd5b50610c33806100276000396000f3fe608060405234801561001057600080fd5b50600436106100625760003560e01c806325a91d511461006757806341f3004a146100975780634ce66666146100b55780638ee93cf3146100d1578063adcfb4fc146100ed578063ce43c03214610109575b600080fd5b610081600480360381019061007c919061075a565b610139565b60405161008e91906107a2565b60405180910390f35b61009f6101cf565b6040516100ac9190610990565b60405180910390f35b6100cf60048036038101906100ca919061075a565b610320565b005b6100eb60048036038101906100e69190610ae7565b610447565b005b61010760048036038101906101029190610ae7565b610517565b005b610123600480360381019061011e919061075a565b610571565b6040516101309190610b7a565b60405180910390f35b6000600160003373ffffffffffffffffffffffffffffffffffffffff1673ffffffffffffffffffffffffffffffffffffffff16815260200190815260200160002060020160008373ffffffffffffffffffffffffffffffffffffffff1673ffffffffffffffffffffffffffffffffffffffff16815260200190815260200160002060009054906101000a900460ff169050919050565b60606002805480602002602001604051908101604052809291908181526020016000905b8282101561031757838290600052602060002090600302016040518060600160405290816000820154815260200160018201805461023090610bcb565b80601f016020809104026020016040519081016040528092919081815260200182805461025c90610bcb565b80156102a95780601f1061027e576101008083540402835291602001916102a9565b820191906000526020600020905b81548152906001019060200180831161028c57829003601f168201915b505050505081526020016002820160009054906101000a900473ffffffffffffffffffffffffffffffffffffffff1673ffffffffffffffffffffffffffffffffffffffff1673ffffffffffffffffffffffffffffffffffffffff1681525050815260200190600101906101f3565b50505050905090565b600160003373ffffffffffffffffffffffffffffffffffffffff1673ffffffffffffffffffffffffffffffffffffffff16815260200190815260200160002060020160008273ffffffffffffffffffffffffffffffffffffffff1673ffffffffffffffffffffffffffffffffffffffff16815260200190815260200160002060009054906101000a900460ff1615600160003373ffffffffffffffffffffffffffffffffffffffff1673ffffffffffffffffffffffffffffffffffffffff16815260200190815260200160002060020160008373ffffffffffffffffffffffffffffffffffffffff1673ffffffffffffffffffffffffffffffffffffffff16815260200190815260200160002060006101000a81548160ff02191690831515021790555050565b60026040518060600160405280600081526020018381526020013373ffffffffffffffffffffffffffffffffffffffff1681525090806001815401808255809150506001900390600052602060002090600302016000909190919091506000820151816000015560208201518160010190805190602001906104ca929190610645565b5060408201518160020160006101000a81548173ffffffffffffffffffffffffffffffffffffffff021916908373ffffffffffffffffffffffffffffffffffffffff160217905550505050565b80600160003373ffffffffffffffffffffffffffffffffffffffff1673ffffffffffffffffffffffffffffffffffffffff168152602001908152602001600020600101908051906020019061056d929190610645565b5050565b6060600160008373ffffffffffffffffffffffffffffffffffffffff1673ffffffffffffffffffffffffffffffffffffffff16815260200190815260200160002060010180546105c090610bcb565b80601f01602080910402602001604051908101604052809291908181526020018280546105ec90610bcb565b80156106395780601f1061060e57610100808354040283529160200191610639565b820191906000526020600020905b81548152906001019060200180831161061c57829003601f168201915b50505050509050919050565b82805461065190610bcb565b90600052602060002090601f01602090048101928261067357600085556106ba565b82601f1061068c57805160ff19168380011785556106ba565b828001600101855582156106ba579182015b828111156106b957825182559160200191906001019061069e565b5b5090506106c791906106cb565b5090565b5b808211156106e45760008160009055506001016106cc565b5090565b6000604051905090565b600080fd5b600080fd5b600073ffffffffffffffffffffffffffffffffffffffff82169050919050565b6000610727826106fc565b9050919050565b6107378161071c565b811461074257600080fd5b50565b6000813590506107548161072e565b92915050565b6000602082840312156107705761076f6106f2565b5b600061077e84828501610745565b91505092915050565b60008115159050919050565b61079c81610787565b82525050565b60006020820190506107b76000830184610793565b92915050565b600081519050919050565b600082825260208201905092915050565b6000819050602082019050919050565b6000819050919050565b6107fc816107e9565b82525050565b600081519050919050565b600082825260208201905092915050565b60005b8381101561083c578082015181840152602081019050610821565b8381111561084b576000848401525b50505050565b6000601f19601f8301169050919050565b600061086d82610802565b610877818561080d565b935061088781856020860161081e565b61089081610851565b840191505092915050565b6108a48161071c565b82525050565b60006060830160008301516108c260008601826107f3565b50602083015184820360208601526108da8282610862565b91505060408301516108ef604086018261089b565b508091505092915050565b600061090683836108aa565b905092915050565b6000602082019050919050565b6000610926826107bd565b61093081856107c8565b935083602082028501610942856107d9565b8060005b8581101561097e578484038952815161095f85826108fa565b945061096a8361090e565b925060208a01995050600181019050610946565b50829750879550505050505092915050565b600060208201905081810360008301526109aa818461091b565b905092915050565b600080fd5b600080fd5b7f4e487b7100000000000000000000000000000000000000000000000000000000600052604160045260246000fd5b6109f482610851565b810181811067ffffffffffffffff82111715610a1357610a126109bc565b5b80604052505050565b6000610a266106e8565b9050610a3282826109eb565b919050565b600067ffffffffffffffff821115610a5257610a516109bc565b5b610a5b82610851565b9050602081019050919050565b82818337600083830152505050565b6000610a8a610a8584610a37565b610a1c565b905082815260208101848484011115610aa657610aa56109b7565b5b610ab1848285610a68565b509392505050565b600082601f830112610ace57610acd6109b2565b5b8135610ade848260208601610a77565b91505092915050565b600060208284031215610afd57610afc6106f2565b5b600082013567ffffffffffffffff811115610b1b57610b1a6106f7565b5b610b2784828501610ab9565b91505092915050565b600082825260208201905092915050565b6000610b4c82610802565b610b568185610b30565b9350610b6681856020860161081e565b610b6f81610851565b840191505092915050565b60006020820190508181036000830152610b948184610b41565b905092915050565b7f4e487b7100000000000000000000000000000000000000000000000000000000600052602260045260246000fd5b60006002820490506001821680610be357607f821691505b60208210811415610bf757610bf6610b9c565b5b5091905056fea2646970667358221220dafbc92a6ebd590c649fef0d59ecdc568ae50fd24fae75f28cb5d74bb26272a364736f6c634300080a0033",
  "immutableReferences": {},
  "source": "// SPDX-License-Identifier: SAM\npragma solidity ^0.8.10;\n\ncontract Media {\n\n    uint256 token_supply = 10000000;\n\n    struct User {\n        uint256 balance;\n        string username;\n        mapping (address => bool) following;\n    }\n\n    struct Post {\n        uint256 likes;\n        string text;\n        address user;\n    }\n\n    mapping (address => User) users;\n    Post[] posts;\n\n    function signUp(string memory _username) public {\n        users[msg.sender].username = _username;\n    }\n\n    function post(string memory _text) public {\n        posts.push(Post({likes: 0, text: _text, user: msg.sender}));\n    }\n\n    function getPosts() public view returns(Post[] memory) {\n        return posts;\n    }\n\n    function toggleFollow(address _address) public {\n        users[msg.sender].following[_address] = !users[msg.sender].following[_address];\n    }\n\n    function checkFollow(address _address) public view returns(bool){\n        return users[msg.sender].following[_address];\n    }\n\n    function getUsername(address _address) public view returns(string memory){\n        return users[_address].username;\n    }\n\n}",
  "sourcePath": "/Users/samuelschmitt/Documents/Easy Access/Coding Projects/blockchain-social/backend/contracts/Media.sol",
  "compiler": {
    "name": "solc",
    "version": "0.8.10+commit.fc410830.Emscripten.clang"
  },
  "schemaVersion": "3.4.4",
  "updatedAt": "2021-12-20T23:14:38.791Z",
  "networkType": "ethereum",
  "devdoc": {
    "kind": "dev",
    "methods": {},
    "version": 1
  },
  "userdoc": {
    "kind": "user",
    "methods": {},
    "version": 1
  }
}